:020000040800F2
:1000000078190020E14800089D4700089F47000834
:10001000A1470008A3470008A5470008000000000A
:10002000000000000000000000000000A7470008DA
:10003000A947000800000000AB470008AD470008D2
:10004000094900080D490008114900081549000830
:10005000194900081D4900082149000825490008E0
:1000600029490008D14700082D49000831490008F6
:1000700035490008394900083D4900084149000850
:1000800045490008494900084D490008B94700089A
:10009000C34700085149000855490008594900085C
:1000A0005D49000861490008654900086949000880
:1000B0006D49000871490008754900087949000830
:1000C0007D490008814900088549000889490008E0
:1000D0008D49000891490008954900089949000890
:1000E0009D490008A1490008A54900080EB4010077
:1000F000002003B07047010000224FF43F43B1F8E5
:1001000040001843A1F84000002070470100002281
:100110004FF43D43B1F840009843A1F8400000205F
:1001200070470200002070470EB418B5040001208B
:10013000A4F840000020A4F840000020A4F84400E7
:100140000020A4F850002000FFF7D5FF002012BCCB
:100150005DF810FB10B40200C878002805D0022812
:100160000FD024D3032816D02DE0087832F82030A1
:1001700048F68F10034053F40073087822F82030BB
:1001800021E0087832F8203048F68F1003400878D4
:1001900022F8203017E0087832F8203048F68F1027
:1001A000034053F4C063087822F820300BE008784D
:1001B00032F8203048F68F10034053F480630878FB
:1001C00022F82030FFE7087832F8203048F68F70A8
:1001D00003400878034343F4004353F08003087856
:1001E00022F82030887A002840F08980487800285A
:1001F00030D0B2F850000B7810EBC30012EB400087
:1002000010F580608B889BB25B089BB25B0003603B
:10021000087832F8200040060CD5087832F82030F3
:1002200048F68F70034043F4004353F0C00308784E
:1002300022F82030087832F8203048F6BF700340AA
:1002400093F0200343F4004353F08003087822F82E
:1002500020301DE1B2F850000B7810EBC30012EB18
:10026000400010F581608B889BB25B089BB25B00FD
:100270000360B2F850000B7810EBC30012EB4000A3
:1002800000F20C400B693F2B0CD30B695B090C7C13
:1002900014F01F0F00D15B1E9B0253F400439BB26E
:1002A000036008E00B695B080C7CE40700D55B1C6D
:1002B0009B029BB20360087832F8200040040CD502
:1002C000087832F8203048F68F70034043F44043FA
:1002D00053F08003087822F82030087832F8203074
:1002E0004BF68F70034093F4805393F4005343F420
:1002F000004353F08003087822F82030C8E00878E3
:1003000032F8203048F68F70034043F4014353F035
:100310008003087822F82030B2F850000B7810EBF8
:10032000C30012EB400010F58060CB889BB25B08E5
:100330009BB25B000360B2F850000B7810EBC30077
:1003400012EB400010F581600B899BB25B089BB2F9
:100350005B000360487800284FD1087832F820000D
:1003600040040CD5087832F8203048F68F700340EE
:1003700043F4404353F08003087822F82030087893
:1003800032F8200040060CD5087832F8203048F6C4
:100390008F70034043F4004353F0C003087822F801
:1003A0002030087832F8203048F68F70034043F44C
:1003B000004353F0C003087822F82030087832F860
:1003C00020304BF68F70034093F4805393F4005326
:1003D00043F4004353F08003087822F82030087873
:1003E00032F8203048F6BF70034043F4004353F026
:1003F0008003087822F820304AE0087832F820009C
:1004000040040CD5087832F8203048F68F7003404D
:1004100043F4404353F08003087822F820300878F2
:1004200032F8200040060CD5087832F8203048F623
:100430008F70034043F4004353F0C003087822F860
:100440002030087832F8203048F68F70034043F4AB
:10045000404353F08003087822F82030087832F8BF
:10046000203048F6BF70034043F4004353F080034C
:10047000087822F82030087832F820304BF68F7058
:10048000034043F4004353F08003087822F82030FF
:10049000002010BC70470200887A002842D14878BA
:1004A00000281FD0087832F8200040060CD50878C4
:1004B00032F8203048F68F70034043F4004353F085
:1004C000C003087822F82030087832F8203048F647
:1004D000BF70034043F4004353F08003087822F8D0
:1004E0002030B9E0087832F8200040040CD50878B4
:1004F00032F8203048F68F70034043F4404353F005
:100500008003087822F82030087832F820304BF643
:100510008F70034043F4004353F08003087822F8BF
:10052000203099E0487800284BD1087832F8200034
:1005300040040CD5087832F8203048F68F7003401C
:1005400043F4404353F08003087822F820300878C1
:1005500032F8200040060CD5087832F8203048F6F2
:100560008F70034043F4004353F0C003087822F82F
:100570002030087832F8203048F68F70034043F47A
:10058000004353F0C003087822F82030087832F88E
:1005900020304BF68F70034043F4004353F0800348
:1005A000087822F82030087832F8203048F6BF70FA
:1005B000034043F4004353F08003087822F82030CE
:1005C0004AE0087832F8200040040CD5087832F868
:1005D000203048F68F70034043F4404353F08003CB
:1005E000087822F82030087832F8200040060CD530
:1005F000087832F8203048F68F70034043F4004307
:1006000053F0C003087822F82030087832F8203000
:1006100048F68F70034043F4404353F0800308785A
:1006200022F82030087832F8203048F6BF700340B6
:1006300043F4004353F08003087822F82030087810
:1006400032F820304BF68F70034043F4004353F0F0
:100650008003087822F8203000207047F8B50400A5
:100660000D000026A8696978012940F0C680296933
:10067000AA69914204D22F69A969C91BA96102E044
:10068000AF690021A961A87A002811D13B009BB273
:10069000AA886969200000F0F1F9B4F850002978BF
:1006A00010EBC10014EB400000F20440076092E040
:1006B000287834F82000400632D5687800281FD109
:1006C000B4F85000297810EBC10014EB400000F2A0
:1006D0000C403F2F0BD33900490917F01F0F00D1F1
:1006E000491E890251F4004189B2016015E03900C8
:1006F0004908FA0700D5491C890289B201600CE05B
:100700006878012809D1B4F85000297810EBC100AD
:1007100014EB400000F2044007602889060031E035
:10072000687800281FD1B4F85000297810EBC10078
:1007300014EB400000F204403F2F0BD3390049096D
:1007400017F01F0F00D1491E890251F4004189B2F0
:10075000016015E039004908FA0700D5491C8902F3
:1007600089B201600CE06878012809D1B4F8500022
:10077000297810EBC10014EB400000F20440076040
:10078000E88806003B009BB2320092B26969200003
:1007900000F074F9687800280DD1287834F820101A
:1007A00048F68F70014041F4004151F0C0012878B3
:1007B00024F820100FE0687801280CD1287834F84C
:1007C000201048F68F70014041F4404151F0800103
:1007D000287824F82010287834F8201048F6BF70C4
:1007E000014091F0100191F0200141F4004151F0DD
:1007F0008001287824F820109FE02969AA69914295
:1008000004D22F69A969C91BA96102E0AF6900215F
:10081000A961A87A00281FD1B4F85000297810EBFC
:10082000C10014EB400000F20C403F2F0BD3390005
:10083000490917F01F0F00D1491E890251F40041E8
:1008400089B2016068E039004908FA0700D5491CFF
:10085000890289B201605FE0687800281FD1B4F88E
:100860005000297810EBC10014EB400000F2044066
:100870003F2F0BD33900490917F01F0F00D1491E34
:10088000890251F4004189B2016015E0390049083C
:10089000FA0700D5491C890289B201600CE068782A
:1008A000012809D1B4F85000297810EBC10014EBED
:1008B000400000F204400760687800281FD1B4F8B7
:1008C0005000297810EBC10014EB400000F20C40FE
:1008D0003F2F0BD33900490917F01F0F00D1491ED4
:1008E000890251F4004189B2016015E039004908DC
:1008F000FA0700D5491C890289B201600CE06878CA
:10090000012809D1B4F85000297810EBC10014EB8C
:10091000400000F204400760287834F820104BF6BD
:100920008F70014091F4805191F4005141F40041E5
:1009300051F08001287824F820100020F2BD020038
:100940000878002811D1087832F820304BF6BF70B3
:10095000034093F4805393F0100343F4004353F0A7
:100960008003087822F8203021E0487800280FD052
:10097000087832F8203048F6BF70034093F0100337
:1009800043F4004353F08003087822F820300EE04F
:10099000087832F820304BF68F70034093F4805380
:1009A00043F4004353F08003087822F820300020FD
:1009B000704702004878002823D0087832F82000D9
:1009C00040060CD5087832F8203048F68F70034086
:1009D00043F4004353F0C003087822F8203008782D
:1009E00032F8203048F6BF70034093F0100393F0C4
:1009F000200343F4004353F08003087822F82030AA
:100A000022E0087832F8200040040CD5087832F84B
:100A1000203048F68F70034043F4404353F0800386
:100A2000087822F82030087832F820304BF68F70A2
:100A3000034093F4805393F4005343F4004353F082
:100A40008003087822F82030002070470200080058
:100A5000C0B2002802D18020A2F84C0000207047CC
:100A600001000020704701000020704701000022B3
:100A7000B1F8440070470200002070472DE9F041B2
:100A800004001D00ADB26D1C6D105FF0000E00265D
:100A900000275FF00008100080B214EB400C1CF53A
:100AA000806C2800002811D091F800E07646491C9F
:100AB00091F800E056EA0E2E7746ACF800701CF173
:100AC000020C1CF1020C491C401EEBE7BDE8F08152
:100AD000F0B49C461FFA8CFC1CF1010C5FEA6C0C14
:100AE000002500261400A4B210EB440717F5806718
:100AF0006446002C06D03D680D803F1D491C491CF2
:100B0000641EF6E7F0BC704730B585B004000025E0
:100B1000002C01D1012078E094F82904002805D1A7
:100B2000002084F82804200000F0E8FC032084F86A
:100B300029042068FFF7EAFA211D83B068462022C5
:100B400000F092FE0EBC2068FFF7D0FA002120686A
:100B5000FFF7E7FA00200F281ED2012142012244AC
:100B600082F829104101214481F8280041012144E3
:100B7000888600214201224482F82B100021420184
:100B800022449163002142012244D16300214201A9
:100B900022441164401CDEE700250F2D21D20020E5
:100BA0006901214481F829026801204480F8285213
:100BB00068012044858600206901214481F82B02C8
:100BC000002069012144C1F8380200206901214454
:100BD000C1F83C02002069012144C1F840026D1CAB
:100BE000DBE7211D83B06846202200F03DFE0EBCED
:100BF0002068FFF799FA002084F82400012084F887
:100C000029042068FFF72FFF002005B030BD10B584
:100C1000040094F82804012801D1022010E00120EA
:100C200084F828040121200000F005FE2068FFF769
:100C300017FF2068FFF75FFA002084F828040020DF
:100C400010BD10B504002068FFF710FF000402D5A6
:100C5000200000F0F2F92068FFF708FF40050FD5EB
:100C60002068B0F844104FF6FF3001402068A0F82B
:100C70004410200000F088FC0021200000F085F8DE
:100C80002068FFF7F3FE400408D52068B0F8441050
:100C90004BF6FF7001402068A0F844102068FFF771
:100CA000E5FE800408D52068B0F844104DF6FF70CA
:100CB00001402068A0F844102068FFF7D7FEC00468
:100CC0001DD52068B0F840104FF6FB700140206839
:100CD000A0F840102068B0F840104FF6F7700140BF
:100CE0002068A0F84010200000F071FC2068B0F8E7
:100CF00044104EF6FF7001402068A0F844102068B0
:100D0000FFF7B4FE000520D52068B0F8400050F091
:100D100008002168A1F840002068B0F844104FF2A4
:100D2000FF7001402068A0F844102068B0F840002F
:100D300050F004002168A1F840002068FFF796FEFB
:100D4000C00402D4200000F032FC2068FFF78EFEC1
:100D500080050BD52068B0F844104FF6FF500140D5
:100D60002068A0F84410200000F007FC2068FFF77E
:100D70007DFEC00508D52068B0F844104FF6FF602E
:100D800001402068A0F8441010BD38B504000D00E3
:100D900094F82804012801D102200DE0012084F8F4
:100DA000280484F824502900C9B22068FFF74EFEB9
:100DB000002084F82804002032BD2DE9F843040007
:100DC0000D0016001F005FF0000800202900C9B2C6
:100DD000090608D52900C9B211F07F014901214453
:100DE00011F1280907E02900C9B211F07F0149017A
:100DF000214411F50A7915F07F0089F800002800D8
:100E0000C0B2C00989F80100300080B2C9F81000F2
:100E100089F8037094F82804012801D102200BE01E
:100E2000012084F8280449462068FFF793F9002040
:100E300084F828044046C0B2BDE8F28370B50400CF
:100E40000D0000202900C9B2090608D52900C9B241
:100E500011F07F014901214411F1280607E0290022
:100E6000C9B211F07F014901214411F50A7615F04C
:100E70007F0030702800C0B2C009707094F8280458
:100E8000012801D102200AE0012084F82804310061
:100E90002068FFF700FB002084F82804002070BDC4
:100EA0002DE9F04104000D0016001F00002029006C
:100EB000C9B211F07F014901214411F50A78C8F83F
:100EC0001460C8F818700021C8F81C10002188F8B8
:100ED000011015F07F0188F8001015F07F0F04D184
:100EE00041462068FFF7BAFB03E041462068FFF760
:100EF000B5FB0020BDE8F081C9B211F00F01490136
:100F00000844D0F8440280B270472DE9F041040053
:100F10000D0016001F0000202900C9B211F07F014A
:100F20004901214411F12808C8F81460C8F8187064
:100F30000021C8F81C10012188F8011015F07F016C
:100F400088F8001015F07F0F04D141462068FFF7A4
:100F500085FB03E041462068FFF780FB0020BDE8E9
:100F6000F08170B504000D0000202900C9B2090607
:100F700008D52900C9B211F07F014901214411F1BE
:100F8000280605E02900C9B24901214411F50A7675
:100F90000120B07015F07F0030702800C0B2C00989
:100FA000707094F82804012801D1022012E0012079
:100FB00084F8280431002068FFF7C1FC15F07F0F8A
:100FC00004D104F22C412068FFF755FD002084F87D
:100FD0002804002070BD70B504000D000020290019
:100FE000C9B2090608D52900C9B211F07F0149012B
:100FF000214411F1280605E02900C9B24901214424
:1010000011F50A760020B07015F07F0030702800CE
:10101000C0B2C009707094F82804012801D10220E0
:101020000AE0012084F8280431002068FFF7C1FCA1
:10103000002084F82804002070BDF8B504000025C5
:10104000002600270020ADF802000020ADF80000C7
:101050002068B0F84400ADF80200000440F10F82AF
:10106000BDF8020010F00F0007003800C0B20028E1
:1010700040F0C180BDF80200C00632D4206801886B
:1010800048F60F7001402068018014F12800050027
:101090002068B0F85000297810EBC100216811EBEE
:1010A000400101F2044108688005800DE86168692B
:1010B000E969084468610021200000F04FFA94F8C3
:1010C00024000028C4D0A8690028C1D194F82400C5
:1010D00050F080002168A1F84C00002084F8240022
:1010E000B6E714F50A70050020680088ADF8000026
:1010F000BDF80000000521D52068B0F8500029781F
:1011000010EBC100216811EB400101F20C410868AD
:101110008005800DE861EB699BB2AA8804F22C413E
:101120002068FFF7D5FC2068018840F68F700140E9
:1011300020680180200000F0F8F989E7BDF8000080
:10114000000485D52068018840F68F700140206832
:1011500001802068B0F85000297810EBC1002168A8
:1011600011EB400101F20C4108688005800DE86137
:10117000E86900280AD0EB699BB2AA8869692068EF
:10118000FFF7A6FC6869E96908446861002120004E
:1011900000F0D4F92068B0F85010206810EB41003E
:1011A00000F20C4029693F290CD3296949092A7C9E
:1011B00012F01F0F00D1491E890251F4004189B27B
:1011C000016008E0296949082A7CD20700D5491C3A
:1011D000890289B20160206801884BF68F70014056
:1011E00091F4805191F4005141F4004151F080019B
:1011F000206801802CE720683900C9B230F821004E
:10120000ADF80000BDF80000000440F199802068AE
:101210003900C9B230F8211040F68F7001402068C3
:101220003A00D2B220F822103800C0B24001204467
:1012300010F50A700500A87A00281AD12068B0F8C5
:101240005000297810EBC100216811EB400101F238
:101250000C4108688005800D0600300080B200282F
:1012600051D033009BB2AA8869692068FFF730FC2F
:1012700049E02068297830F8210040041AD5206818
:10128000B0F85000297810EBC100216811EB400143
:1012900001F2044108688005800D0600300080B22C
:1012A000002821D033009BB2EA8869692068FFF7E3
:1012B0000FFC19E02068B0F85000297810EBC1004D
:1012C000216811EB400101F20C4108688005800D96
:1012D0000600300080B2002806D033009BB22A8975
:1012E00069692068FFF7F4FB2068297830F821103D
:1012F00048F68F70014041F4004151F0C001206870
:101300002A7820F82210E969300080B24118E9619A
:101310006869310089B208446861A869002804D06E
:10132000300080B22969884204D22978200000F078
:1013300005F905E0AB696A6929782000FFF7B0FD7F
:10134000BDF8000000067FF583AE3800C0B2400152
:1013500020442830050020683900C9B230F8211037
:1013600048F60F70014020683A00D2B220F82210EF
:10137000A87A002819D12068B0F85000297810EB1D
:10138000C100216811EB400101F2044108688005A9
:10139000800DE861E86900284FD0EB699BB2AA880C
:1013A00069692068FFF76AFB47E02068297830F810
:1013B0002100400619D52068B0F85000297810EBBC
:1013C000C100216811EB400101F204410868800569
:1013D000800DE861E869002820D0EB699BB2EA88BB
:1013E00069692068FFF74AFB18E02068B0F85000F0
:1013F000297810EBC100216811EB400101F20C418A
:1014000008688005800DE861E869002806D0EB696E
:101410009BB22A8969692068FFF730FB2068297828
:1014200030F8211048F68F70014041F4404151F0EE
:10143000800120682A7820F822102068B0F8500037
:10144000297810EBC100216811EB400101F2044141
:1014500008688005800DE8616869E9690844686189
:10146000A869002804D12978200000F077F8EFE57A
:10147000AB696A6929782000FFF747FDE8E500209D
:10148000F2BDF0B40246106895681318506803EB7B
:101490005004C00721D54D441FE0F0BC02F10C0000
:1014A000704713F8017B05F8017B491EF9D1A0B103
:1014B000B60813F8011B06F00306032E08BF13F845
:1014C000016B01EB06214942801C294405D011F82B
:1014D000016B05F8016B401EF9D1A342DDD013F872
:1014E000016B16F0030104BF13F8011BC91C30097E
:1014F0000F28DAD113F8010B0F30D6E781B001685D
:10150000DFF81C2391420ED1DFF81813096851F45B
:101510000001DFF810231160DFF80813096811F4E7
:1015200000010091009901B0704710B5040004F269
:101530002C41D4F85C0400F02DFA10BD38B504003D
:101540000D002800C0B240012044D0F83C22290000
:10155000C9B2D4F85C0400F052FA31BD38B50400C9
:101560000D002800C0B240012044C26B2900C9B25E
:10157000D4F85C0400F08BFA31BD10B50400D4F847
:101580005C0400F02EFB10BD38B504000125A068F6
:10159000022801D000F000FC2900C9B2D4F85C0494
:1015A00000F00AFBD4F85C0400F0E3FA31BD10B59A
:1015B0000400D4F85C0400F003FBA069002805D007
:1015C0009948006850F006009749086010BD10B5B2
:1015D0000400D4F85C0400F0FDFA10BD10B504005E
:1015E0009248C0F85C449148C4F820028C488F4966
:1015F000086008208D49486002208C4988600020DE
:101600008A49886100208949C861002087490862A9
:101610008648FFF779FA002801D000F0BDFB1823B7
:1016200000220021D4F8200200F0F4FB582300220D
:101630008021D4F8200200F0EDFBC023002281219C
:10164000D4F8200200F0E6FB4FF488730022012159
:10165000D4F8200200F0DEFB4FF4807300228221D8
:10166000D4F8200200F0D6FB002010BDF8B504002D
:1016700000250027D4F82002FFF7C9FA0600300041
:10168000C0B200F0D9F8C0B2F2BD2DE9F0470400B5
:101690000D0016001F005FF000085FF0000A330025
:1016A000DBB23A0092B22900C9B2D4F82002FFF7A7
:1016B00084FB81464846C0B200F0BEF8C0B2BDE827
:1016C000F0872DE9F04104000D0000265FF00008CE
:1016D0002900C9B2D4F82002FFF7B0FB0700380098
:1016E000C0B200F0A9F8C0B2BDE8F0812DE9F04128
:1016F00004000D0000265FF000082900C9B2D4F8EC
:101700002002FFF72EFC07003800C0B200F094F86A
:10171000C0B2BDE8F0812DE9F04104000D000026C3
:101720005FF000082900C9B2D4F82002FFF753FC8B
:1017300007003800C0B200F07FF8C0B2BDE8F08109
:101740000200D2F820020B00DBB21B0607D5C9B29B
:1017500011F07F014901084490F82A0006E0C9B25F
:1017600011F07F014901084490F82A0270472DE9E1
:10177000F04104000D0000265FF000082900C9B206
:10178000D4F82002FFF701FB07003800C0B200F0D8
:1017900053F8C0B2BDE8F0812DE9F04704000D0018
:1017A00016001F005FF000085FF0000A3B009BB2CC
:1017B00032002900C9B2D4F82002FFF7A6FB814607
:1017C0004846C0B200F038F8C0B2BDE8F0872DE955
:1017D000F04704000D0016001F005FF000085FF0E6
:1017E000000A3B009BB232002900C9B2D4F82002A3
:1017F000FFF756FB81464846C0B200F01DF8C0B264
:10180000BDE8F08738B504000D002900C9B2D4F84E
:101810002002FFF771FB32BD010005487047000050
:10182000005C00401C10024010ED00E08C01002024
:10183000E00F002070477047010000220800C0B28E
:10184000002805D0022807D004D3032806D007E0DB
:10185000002006E0022004E0012002E0022000E077
:101860000220C0B270470102103A07D330B4B1E889
:101870003810103AA0E83810F9D230BC530724BF12
:10188000B1E80810A0E8081044BF51F8043B40F844
:10189000043BD20724BF31F8022B20F8022B44BFAF
:1018A0000B7803707047121F17D35B0009D151F8F2
:1018B000043B20F8023B1B0C121F20F8023BF6D21F
:1018C0000BE051F8043B00F8013B1B0A20F8023BF7
:1018D0001B0C121F00F8013BF3D238BF121D521E21
:1018E00024BF11F8013B00F8013BF8D8704770B5F0
:1018F00005000C001600002D01D1022012E0D5F8E1
:101900001402002802D00020C5F81402002C01D0D7
:10191000C5F81042012085F8FC012E702800FFF761
:101920005DFE002070BD02000023002903D0C2F834
:101930001412002000E00220C0B2704710B504006D
:101940002000FFF793FE002010BD0100002070472B
:1019500070B504000D000226D4F8140200280AD045
:101960002900C9B22000D4F8142212689047002838
:1019700001D1002006003000C0B270BD38B50400AF
:101980000D002900C9B22000D4F8142252689047F3
:10199000002032BD38B504000D00290014F5027096
:1019A00000F042FD0120C4F8F401B4F80E02C4F8BE
:1019B000F80194F8080210F01F00C0B2002803D00C
:1019C00002280DD006D311E014F50271200000F0BA
:1019D00047FA12E014F50271200000F07FFA0CE0E3
:1019E00014F50271200000F0A0FA06E094F8081245
:1019F00011F080012000FFF779FE002032BDF8B51C
:101A000004000D0016002800C0B200282DD114F5E6
:101A100082700700D4F8F401032836D1F868B96859
:101A2000884210D2B968F868091AB960B868F968CC
:101A3000884201D2BA6800E0FA6892B23100200010
:101A400000F07EFD21E0D4F814020069002808D0DF
:101A500094F8FC01032804D12000D4F81412096979
:101A60008847200000F079FD0FE0D4F81402806967
:101A700000280AD094F8FC01032806D12900C9B235
:101A80002000D4F81422926990470020F2BDF8B5E6
:101A900004000D0016002800C0B2002857D114F130
:101AA00014000700D4F8F401022845D1F868B96899
:101AB000884210D2B968F868091AB960BA6892B257
:101AC0003100200000F017FD00230022002120003B
:101AD000FFF77DFE30E07868F968B0FBF1F201FBBA
:101AE0001200002817D17868F968884213D3786803
:101AF000D4F8F81188420ED200220021200000F014
:101B0000FAFC0020C4F8F801002300220021200084
:101B1000FFF75DFE10E0D4F81402C068002808D07A
:101B200094F8FC01032804D12000D4F81412C968E9
:101B30008847200000F01EFD94F80002012816D10D
:101B40002000FFF702FF002084F800020FE0D4F825
:101B50001402406900280AD094F8FC01032806D139
:101B60002900C9B22000D4F81422526990470020FD
:101B7000F2BD10B504004023002200212000FFF731
:101B800084FD4020C4F81001402300228021200061
:101B9000FFF77BFD40202062012084F8FC01D4F88F
:101BA0001802002806D06168C9B22000D4F81422B7
:101BB00052689047002010BD020011740020704749
:101BC000010091F8FC0181F8FD01042081F8FC017D
:101BD00000207047010091F8FD0181F8FC01002010
:101BE000704710B5040094F8FC01032809D1D4F81B
:101BF0001402C069002804D02000D4F81412C96966
:101C00008847002010BD000010B504007A48007815
:101C100000280AD0200080B2082806D100F016FD66
:101C20004FF40051754800F0A4FF10BD80B5744812
:101C300074490860734800F0D5FF002801D000F017
:101C4000ABF801BD00B585B06F48006850F00400E6
:101C50006D4908606C48006810F00400009000981E
:101C60006948006850F008006749086066480068E5
:101C700010F00800009000986348006850F01000D1
:101C8000614908606048006810F0100000900098FA
:101C90005D48006850F020005B4908605A480068C1
:101CA00010F020000090009801224FF4005153489A
:101CB00000F052FF4FF400500190012002900020EC
:101CC00003900220049001A94C4800F023FE05B0C7
:101CD00000BD00B593B0012009905FF480300A90F8
:101CE00000200B9001200D90022010905FF48030B6
:101CF00011905FF4E010129009A800F085FF002811
:101D000001D000F049F80F20049002200590002037
:101D100006904FF48060079000200890012104A8ED
:101D200001F09DF9002801D000F036F81020009055
:101D300000200390684601F0C7FA002801D000F0A7
:101D40002BF801F089FA4FF47A71B0FBF1F001F051
:101D5000DCFB042001F0DFFB002200215FF0FF30FC
:101D600001F0B7FB00220021142001F0B2FB142087
:101D700001F0C4FB00220021132001F0AAFB132074
:101D800001F0BCFB00220021052001F0A2FB052090
:101D900001F0B4FB13B000BDFEE780B501F0E2FB3B
:101DA000FFF797FFFFF74EFF01F0F0FBFFF73EFF55
:101DB00000F018FC01F040FE144890F8FC010328E4
:101DC00003D101200C49087009E00B480078002875
:101DD00002D001200E49087000200749087001F068
:101DE00006FD0B4800780028E6D001F060FC0020DA
:101DF00007490870E0E700006F150020001001405F
:101E0000003002405415002018100240BC0D002084
:101E10008801002030B4040000200D00ADB22D0672
:101E200007D50D00ADB215F07F056D0125442835AD
:101E300005E00D00ADB26D01254415F50A751000E1
:101E400080B2002803D10020A872AB8005E00120F9
:101E5000A872EB801800000C2881002030BC70476D
:101E600070B504000D0000266878002820D00128F5
:101E700028D0032821D005280BD0062804D0082814
:101E800011D009280AD022E02900200000F00CF926
:101E900021E02900200000F0B3F91CE02900200017
:101EA00000F0DFF917E02900200000F049FA12E005
:101EB0002900200000F06AFA0DE02900200000F05F
:101EC00083FA08E02900200000F091FA03E02900DD
:101ED000200000F0BDFA3000C0B270BD70B5040043
:101EE0000D00002694F8FC01032818D12879022857
:101EF00010DA29002000D4F8142292689047E8886C
:101F000000280BD13000C0B2002807D1200000F01B
:101F100024FB03E02900200000F09AFA03E02900E6
:101F2000200000F095FA002070BD2DE9F041050079
:101F30000E000027B6F80480307810F060002028EA
:101F400007D131002800D5F814229268904700206C
:101F5000A8E07078002867D0012836D0032840F028
:101F60009F8095F8FC01022802D003280ED027E0BC
:101F70004046C0B2002808D04046C0B2802804D0F5
:101F80004146C9B22800FFF7B1FB1DE07088002868
:101F90000CD14046C0B2002808D04046C0B28028CC
:101FA00004D04146C9B22800FFF7A0FB3100280049
:101FB000D5F8142292689047280000F0CEFA03E08A
:101FC0003100280000F044FA6AE095F8FC0102288C
:101FD00002D003280ED022E04046C0B2002808D02C
:101FE0004046C0B2802804D04146C9B22800FFF75D
:101FF0007DFB18E07088002810D118F07F0F0AD000
:102000004146C9B22800FFF786FB31002800D5F809
:10201000142292689047280000F09FFA03E03100F4
:10202000280000F015FA3BE095F8FC01022802D0E8
:10203000032809D02FE018F07F0F04D04146C9B221
:102040002800FFF753FB2AE04046C0B2000608D53F
:102050004046C0B210F07F000001284410F1140483
:1020600007E04046C0B210F07F000001284410F5A0
:1020700082744146C9B22800FFF762FB002802D0F3
:102080000120206001E000202060022221002800C1
:1020900000F01BFA03E03100280000F0D9F9FFE757
:1020A0003800C0B2BDE8F0817CB504000D0068883E
:1020B00080B2000AC0B2012808D002280ED003283E
:1020C00021D0062861D007286ED07EE06946207CAA
:1020D000D4F810221268904706007BE0207C00288C
:1020E00008D16846D4F81412896A8847060002208D
:1020F000707007E06846D4F81412C96A8847060071
:102100000220707066E0A878002808D0022816D057
:102110000DD3042823D01AD3052828D02FE06946F0
:10212000207CD4F810225268904706002CE06946C3
:10213000207CD4F8102292689047060024E069467B
:10214000207CD4F81022D268904706001CE0694633
:10215000207CD4F8102212699047060014E06946EA
:10216000207CD4F810225269904706000CE06946A2
:10217000207CD4F8102292699047060004E02900E0
:10218000200000F065F93AE024E0207C002806D128
:102190006846D4F81412496B884706001AE02900F3
:1021A000200000F055F92AE0207C002808D168467C
:1021B000D4F81412096B884706000720707009E0F4
:1021C0002900200000F044F919E02900200000F067
:1021D0003FF914E0BDF80000002810D0E88800287E
:1021E0000DD0BDF80000E988884202D3E888ADF838
:1021F0000000BDF800203100200000F066F973BD3A
:1022000070B504000D00A888002825D1E8880028B2
:1022100022D1A87810F07F00060094F8FC01032872
:1022200004D12900200000F013F919E084F8FE61C0
:102230003100C9B22000FFF79AFA200000F08DF9B2
:102240003000C0B2002803D0022084F8FC0107E06F
:10225000012084F8FC0103E02900200000F0F8F8D8
:1022600070BD38B504000D006888344908703348E3
:102270000078022804DB2900200000F0E9F85CE087
:1022800094F8FC01022802D003281ED051E02B480C
:102290000078002815D0294800786060032084F871
:1022A000FC01264801782000FFF752FB022804D1E8
:1022B0002900200000F0CCF83FE0200000F04DF9AC
:1022C00002E0200000F049F937E01C4800780028BF
:1022D0000ED1022084F8FC0118480078606017488D
:1022E00001782000FFF74AFB200000F036F91FE0DC
:1022F000124800786168884217D06168C9B220002E
:10230000FFF73CFB0D48007860600C480178200026
:10231000FFF71EFB022804D12900200000F098F8E6
:102320000BE0200000F019F902E0200000F015F9A0
:1023300003E02900200000F08BF831BD7315002068
:1023400038B504000D00E888012804D029002000D9
:1023500000F07EF819E094F8FC01022802D003286E
:1023600009D00EE00020A060012214F10801200035
:1023700000F0ABF809E00122211D200000F0A5F8D3
:1023800003E02900200000F063F831BD38B50400F7
:102390000D0094F8FC01801E012810D80120E06097
:1023A000D4F80402002803D0E06850F00200E06096
:1023B000022214F10C01200000F087F803E029004C
:1023C000200000F045F831BD38B504000D006888E4
:1023D00001280BD10120C4F8040229002000D4F800
:1023E000142292689047200000F0B7F831BD38B54C
:1023F00004000D0094F8FC01801E01280FD86888A5
:1024000001280BD10020C4F8040229002000D4F8D0
:10241000142292689047200000F09FF803E0290002
:10242000200000F015F831BD0A7802704A78427039
:102430008A78CB7812EB032242800A794B7912EB2F
:10244000032282808A79CB7912EB0322C280704703
:1024500038B504000D0080212000FFF747F9002166
:102460002000FFF743F931BDF8B504000D00160058
:102470000027002C1ED0200000F01DF84000801C1A
:10248000308030883900C9B268547F1C032039007D
:10249000C9B268547F1C207800280BD020783900FE
:1024A000C9B26854641C7F1C00203900C9B268544A
:1024B0007F1CF0E7F1BD020000201178002902D056
:1024C000401C521CF9E7C0B2704770B504000D0003
:1024D00016000220C4F8F401300080B2A061300080
:1024E00080B2E06133009BB22A0000212000FFF798
:1024F00053F9002070BD70B504000D0016003300C4
:102500009BB22A0000212000FFF746F9002070BD91
:1025100070B504000D0016000320C4F8F40130006B
:1025200080B2C4F80801300080B2C4F80C01330056
:102530009BB22A0000212000FFF749F9002070BD5E
:1025400070B504000D00160033009BB22A00002174
:102550002000FFF73CF9002070BD10B504000420F6
:10256000C4F8F4010023002200212000FFF714F931
:10257000002010BD10B504000520C4F8F4010023AC
:10258000002200212000FFF722F9002010BD0000EA
:102590000020DFF8D41208700020DFF8D012087095
:1025A0000020DFF8C81248700020DFF8C0128870E1
:1025B0000020DFF8B812C8700020AC49C870AB48E2
:1025C000407910F0FE00A9494871A848407910F000
:1025D000FD00A6494871A548407910F0FB00A349C9
:1025E0004871704780B58CB0082008900020099091
:1025F00001200A9003200B901020049000200590E9
:102600000120069003200790082000909848019030
:10261000012002900320039008A9964800F07AF95F
:1026200004A9944800F076F96946924800F072F9DE
:1026300000220021092000F04CFF092000F05EFF7D
:10264000FFF7A6FF01F0FAF90DB000BD80B510212B
:10265000884800F076FA8849087083480078012895
:1026600019D002D3032858D042D3834800780028D9
:102670000AD17D480078401C7B4908707B4840792E
:1026800050F0010079494871002078490871002014
:10269000764948706BE078480078002807D0734886
:1026A0000079401C714908717048007901E06F4859
:1026B00000796E4908716D4841786F4802786B481F
:1026C00090F90000824011436848417067480078E3
:1026D000401C6649087065480078082807DB002020
:1026E0006249087060480078401C5F4908703EE00D
:1026F0005E4800790221604A127890FBF1F301FBF9
:102700001300824205D058480078401C5649087092
:1027100002E000205449087029E057480078012859
:102720001CD15248807851494978884205D14F4898
:10273000C0784E494978884210D04C4880784B493F
:10274000C8704A484078494988704848407801F044
:1027500096F94A480068401C4849086000204249F0
:1027600008704248407910F0FE004049487101BDB0
:1027700070B50024002601F0B9F905002800C0B2A8
:10278000F02819D101F0B2F905002800C0B21228D2
:1027900003D02800C0B259280DD134484079C0B2C6
:1027A000800810F00100002805D03048407910F072
:1027B000FB002E49487153E02800C0B2122803D014
:1027C0002800C0B2592806D12848407950F00400AA
:1027D0002649487144E02800C0B2582815D1234842
:1027E0004079C0B2400810F00100002806D01F4810
:1027F000407910F0FD001D49487105E01B48407903
:1028000050F00200194948712AE018484079C0B2D6
:10281000400810F00100002811D014484079C0B2DF
:10282000800810F00100002804D015482900C9B222
:10283000445C15E013482900C9B2445C10E00B4821
:102840004079C0B2800810F00100002804D00D4883
:102850002900C9B2445C03E009482900C9B2445CBC
:102860002000C0B270BD0000701500205C15002073
:1028700000002110000C014071150020641500209B
:10288000F4450008744600082DE9F04704000D00E7
:10289000160000275FF000085FF0000A5FF00009F3
:1028A00001F024F907003800C0B2002806D15046D4
:1028B00080B20028F4D10020288029E0504680B260
:1028C00027541AF1010A5046310080B289B2884279
:1028D00002D3A5F800A01BE03800C0B2E028DFD08A
:1028E0003800C0B2F02802D101208146D8E748461E
:1028F000C0B2002801D1B846D2E738004146C0B284
:10290000C9B2884202D1A5F800A001E000202880C9
:10291000BDE8F0872DE9F8430200002400250026D9
:1029200000275FF000085FF0000EBEF1100F80F08E
:102930000681012010FA0EF004000868204005000E
:10294000A54240F0F9804868002831D0012820D005
:10295000022825D003283CD011281DD0122823D0CE
:10296000DFF83CC2604523D0DFF838C260451FD095
:10297000DFF834C260451BD0DFF830C2604517D0A5
:10298000DFF82CC2604513D0DFF828C260450FD0B5
:1029900022E0C86807001FE0C868001D07001BE0B0
:1029A000C8680830070017E0C8680C30070013E05B
:1029B0008868002802D10420070009E088680128FF
:1029C00003D108200700146102E0082007005461C9
:1029D00002E000200700FFE7B5F5807F01D2130079
:1029E00000E0131DB5F5807F02D25FEA8E0803E098
:1029F000BEF108085FEA8808D3F800C00F2010FA7B
:102A000008F03CEA000C17FA08F050EA0C0CC3F886
:102A100000C04868C00040F18F806748006850F0EF
:102A20000100DFF894C1CCF800006348006810F0A2
:102A30000100009000986148F4465FEA9C0C50F851
:102A40002CC05FF00F091EF00300C0B2800019FA1D
:102A500000F93CEA090C5A48824202D15FF00009B1
:102A600013E05848824202D15FF001090DE0564858
:102A7000824202D15FF0020907E05448824202D14B
:102A80005FF0030901E05FF0040966461EF00300F1
:102A9000C0B2800019FA00F959EA06064748F44620
:102AA0005FEA9C0C40F82C604868C00307D5484892
:102AB00000682843DFF818C1CCF8000006E044485D
:102AC0000068A843DFF808C1CCF80000486880031C
:102AD00007D5404800682843DFF8F8C0CCF800006C
:102AE00006E03C480068A843DFF8E8C0CCF80000E6
:102AF0004868C00207D5384800682843DFF8D8C0C6
:102B0000CCF8000006E034480068A843DFF8C8C0ED
:102B1000CCF800004868800207D530480068284398
:102B2000DFF8B8C0CCF8000006E02C480068A843E5
:102B3000DFF8A8C0CCF800001EF1010EF5E6BDE8F4
:102B4000F183020090680B009BB2184201D0012073
:102B500000E00020C0B270471300DBB2002B03D0AE
:102B60000B009BB2036103E00B009BB21B040361EB
:102B70007047C3680A0092B25340C360704710B5F3
:102B8000040017480068210089B2084207D02000DD
:102B900080B213490860200080B2FFF735F810BDFD
:102BA000000011100000121000002110000022107F
:102BB00000003110000032101810024008000140DF
:102BC00000080140000C01400010014000140140C9
:102BD0000004014004040140080401400C040140C9
:102BE0001404014010B50400002C01D101200AE0BA
:102BF0006079002804D100202071200001F007F83E
:102C000001206071002010BD7CB5040000252078F3
:102C1000C00740F18480DFF87406006810F00C00F3
:102C200004280BD0DFF86406006810F00C000828B8
:102C30000ED1DFF858060068C00309D5DFF8480652
:102C4000006880036BD56068002868D1012005E228
:102C50006068B0F5803F08D1DFF82C06006850F4BA
:102C60008030DFF82416086038E06068002810D152
:102C7000DFF81406006830F48030DFF80C160860C6
:102C8000DFF80406006830F48020DFF8FC150860E7
:102C900024E06068B0F5A02F10D1DFF8EC050068E3
:102CA00050F48020DFF8E0150860DFF8DC050068EC
:102CB00050F48030DFF8D01508600FE0DFF8C80569
:102CC000006830F48030DFF8C0150860DFF8B80520
:102CD000006830F48020DFF8B015086060680028D4
:102CE0000ED000F0B1FF0500DFF89C0500688003FE
:102CF00015D400F0A9FF401B6528F5D30320ADE1F2
:102D000000F0A2FF0500DFF880050068800306D50B
:102D100000F09AFF401B6528F5D303209EE1207840
:102D200080075CD5DFF86405006810F00C0F0BD04D
:102D3000DFF85805006810F00C0008281AD1DFF8F9
:102D40004C050068C00315D4DFF83C050068800717
:102D500004D52069012801D001207FE1DFF8280592
:102D6000006830F0F800616950EAC100DFF818151A
:102D7000086034E0206900281ED00120DFF81C150F
:102D8000086000F061FF0500DFF8FC0400688007C0
:102D900006D400F059FF401B0328F5D303205DE162
:102DA000DFF8E404006830F0F800616950EAC1001F
:102DB000DFF8D414086012E00020DFF8E0140860A7
:102DC00000F042FF0500DFF8C0040068800706D568
:102DD00000F03AFF401B0328F5D303203EE12078A2
:102DE00000072CD5A069002816D00120DFF8B01408
:102DF000086000F029FF0500DFF89C0400688007E8
:102E000006D400F021FF401B0328F5D3032025E161
:102E1000012000F024FA12E00020DFF8841408609A
:102E200000F012FF0500DFF870040068800706D587
:102E300000F00AFF401B0328F5D303200EE12078A1
:102E4000400740F1A8800026DFF858040068C00061
:102E500010D4DFF85004006850F08050DFF84414BC
:102E60000860DFF84004006810F08050009000987F
:102E700001200600DFF830040068C00516D4DFF832
:102E80002804006850F48070DFF81C14086000F01B
:102E9000DBFE0500DFF810040068C00506D400F072
:102EA000D3FE401B6528F5D30320D7E0E068012856
:102EB00008D1DFF8F803006850F00100DFF8EC13E8
:102EC000086037E0E068002810D1DFF8E003006810
:102ED00040084000DFF8D4130860DFF8D003006832
:102EE00030F00400DFF8C413086023E0E068052830
:102EF00010D1DFF8B803006850F00400DFF8AC131D
:102F00000860DFF8A803006850F00100DFF89C13A8
:102F100008600FE0DFF89403006840084000DFF825
:102F20008C130860DFF88403006830F00400DFF8D9
:102F30007C130860E068002810D000F085FE0500D2
:102F4000DFF868030068800719D400F07DFE401B9D
:102F500041F289318842F3D303207FE000F074FE10
:102F60000500DFF848030068800708D500F06CFE14
:102F7000401B41F289318842F3D303206EE03000D8
:102F8000C0B2012807D1DFF81C03006830F0805080
:102F9000DFF810130860E06900285ED0DFF8EC026B
:102FA000006810F00C00082855D0E06902283FD1D5
:102FB0000020DFF8FC12086000F046FE0600DFF893
:102FC000C8020068800106D500F03EFE801B032881
:102FD000F5D3032042E0206AB0F5803F09D1DFF845
:102FE000AC02016831F40031A0680143DFF89C02B3
:102FF0000160DFF89802016831F47411206A01431E
:10300000606A0143DFF8840201600120DFF8A0124A
:10301000086000F019FE0500DFF86C02006880010E
:103020001BD400F011FE401B0328F5D3032015E04C
:103030000020DFF87C12086000F006FE0500DFF8D3
:1030400048020068800108D500F0FEFD401B0328FF
:10305000F5D3032002E0012000E0002076BD70B52A
:1030600004000D000026DFF84C02006810F0070095
:10307000A84211D2DFF83C020068C008C000284313
:10308000DFF830120860DFF82C02006810F007004B
:10309000A84201D00120A5E02078800709D5DFF8FB
:1030A000EC01016831F0F001A0680143DFF8DC01B8
:1030B00001602078C0075AD56068012806D1DFF882
:1030C000C8010068800312D401208BE060680228E8
:1030D00006D1DFF8B4010068800108D4012081E046
:1030E000DFF8A4010068800701D401207AE0DFF84E
:1030F0009C0101688908890060680143DFF88C0140
:10310000016000F0A1FD0600606801280FD1DFF822
:103110007C01006810F00C00042828D000F094FD19
:10312000801B41F289318842F1D303205AE0606864
:1031300002280ED15548006810F00C00082816D05F
:1031400000F082FD801B41F289318842F2D30320D6
:1031500048E04E48006810F00C0F08D000F074FDF5
:10316000801B41F289318842F3D303203AE0514871
:10317000006810F0070085420ED24E480068C00873
:10318000C00028434B4908604A48006810F0070017
:10319000A84201D0012025E02078400707D53B4810
:1031A000016831F4E061E06801433848016020784B
:1031B000000708D53548006830F46050216950EAAE
:1031C000C1003249086000F00EF83B492F4A1268EE
:1031D000C2F30312895CC8402E490860002000F049
:1031E00039FD002070BD78B585B001A833491022A3
:1031F000FEF73AFB32480088ADF8000000200021BD
:10320000002200230024214D2D6815F00C06042E09
:1032100002D0082E02D01CE01D481BE001A8C5F317
:103220008346805D0300E8030DD56846174E366877
:10323000C6F34046805D0100154800FB03F0B0FB7B
:10324000F1F0020003E01F4800FB03F00200100051
:1032500000E00F4806B070BD0E480068704781B0AE
:103260000C490968C9084FF47A72B1FBF2F101FB0D
:1032700000F1009100BF00994A1E00920029F9D187
:1032800001B070470000000000100240041002402E
:1032900000127A0014000020241002400000424274
:1032A000800442421C100240007000402010024086
:1032B0006000424200200240C0480008B0480008B8
:1032C0006618000800093D00F8B505000026002436
:1032D0002878C00767D500273F480068C0000DD494
:1032E0003D48006850F080503B4908603A4800680B
:1032F00010F08050009000980120070037480068C7
:10330000C00513D43548006850F480703349086014
:1033100000F09AFC060031480068C00506D400F0B1
:1033200093FC801B6528F6D3032053E02C480068EB
:1033300010F440700400002C23D0686810F4407032
:1033400084421ED02648006830F4407004000120FA
:103350002449086000202349086021480460E007F0
:103360000FD500F071FC06001D480068800708D4E6
:1033700000F06AFC801B41F289318842F4D30320BB
:1033800028E01748016831F4407168680143144827
:1033900001603800C0B2012805D10F48006830F044
:1033A00080500D4908602878800707D50E480168CD
:1033B00031F44041A86801430B4801602878C006F9
:1033C00007D50948016831F48001E86801430648DF
:1033D00001600020F2BD00001C100240007000409F
:1033E00020100240400442420410024010F0070343
:1033F00051490A684FF6FF010A40504951EA03213A
:103400000A434D490A6070474B480068C0F30220E8
:103410007047012210F01F018A40494903005BB246
:103420005B0941F82320704710B4020052B2002A11
:1034300009D50A01434B040064B214F00F0423447D
:1034400003F8042C04E00A013F4B040064B21A554F
:1034500010BC704770B4030013F00704D4F10700E8
:10346000052801D3042001E0D4F10700251D072D14
:1034700001D2002500E0E51E012616FA00F0401EEC
:103480000140A940012010FA05F56D1E2A401143A4
:10349000080070BC704710B50400601EB0F1807F5A
:1034A00001D301200EE0601E284908600F215FF063
:1034B000FF30FFF7B9FF00202549086007202549A4
:1034C0000860002010BD10B504002000FFF78EFF3B
:1034D00010BD2DE9F04104000D0016000027FFF794
:1034E00093FF8046320029004046FFF7B3FF0100FA
:1034F000200040B2FFF798FFBDE8F08110B504004E
:10350000200040B2FFF785FF10BD10B50400200079
:10351000FFF7C1FF10BD042806D10E49096851F01C
:1035200004010C4A116005E00A49096831F0040100
:10353000084A1160704700000CED00E00000FA0539
:1035400000E100E018ED00E000E400E014E000E03D
:1035500018E000E010E000E080B500F001F801BDE7
:103560007047000080B50848006850F01000064918
:1035700008600320FFF7A7FF002000F06BFB00F0BE
:10358000F7FA002002BD00000020024080B50022B2
:103590000F491048FEF7ABF9002801D0FEF7FCFBFD
:1035A0000D490C48FEF7BFF9002801D0FEF7F4FBE7
:1035B0000A49084800F094FC002801D0FEF7ECFB13
:1035C0000448FEF7BBF9002801D0FEF7E5FB01BD7A
:1035D00038010020BC0D002024000020280100201C
:1035E000F8B504000D00002C04D0280080B2400083
:1035F000652801DB00203DE0DFF808640027C020DB
:10360000390089B270547F1C0020290089B2884299
:1036100024DA215C0A00D2B2C02A0AD1DB223B00A4
:103620009BB2F2547F1CDC223B009BB2F2547F1C05
:1036300012E00A00D2B2DB2A0AD1DB223B009BB2A5
:10364000F2547F1CDD223B009BB2F2547F1C03E04E
:103650003A0092B2B1547F1C401CD6E7380080B2C9
:10366000002805D0390089B2DFF8980300F0D4FCB7
:10367000380080B2F2BDDFF890030168DFF88C03F8
:103680000268DFF88C03006802FB0101DFF88403A5
:103690000068B1FBF0F2DFF87C03006800FB121158
:1036A000DFF868030160DFF864030068704738B52D
:1036B000DFF864430025182D04DAFFF7DCFF6055BE
:1036C0006D1CF8E731BD10B50020DFF8501308700D
:1036D0001824DFF848034470200080B2000ADFF8A5
:1036E0003C138870DFF838030088DFF83013C870A7
:1036F000DFF82C03008880B2000ADFF8201308717D
:103700005FF0FF321D21DFF8140300F0A3FCDFF8A7
:103710000C1348770100090ADFF8002391770100B4
:10372000090CDFF8F822D1770100090EDFF8EC224E
:1037300082F8201010BD1CB50020BA490870002086
:10374000ADF8000006226946B748FFF79DF8BDF8BE
:103750000000B4494870BDF8000080B2000AB149C9
:103760008870AF480088AF49C870AD48008880B203
:10377000000AAC490871BDF80040641D5FF0FF32DB
:103780002100A84800F066FCA64908550100090A76
:10379000A44A224451700100090CA24A22449170AB
:1037A0000100090E9F4A2244D17013BD38B50400B0
:1037B0000D00002C09D0FEF7DBFF0028FBD1FFF73E
:1037C00082FF21219548FFF70BFF31BD38B504007A
:1037D0000D00002C03D0280080B2102800D005E096
:1037E000FFF7A9FF0F218F48FFF7FAFE31BD70B533
:1037F0008E480078002826D08D4C0025002088496E
:1038000008806078054386480188E0780143844851
:1038100001808348008882490880661D207801283D
:1038200002D0022806D00BE0290089B23000FFF751
:10383000BDFF05E0290089B23000FFF7C7FFFFE7B1
:1038400000207A49087070BDF8B504000D00774873
:103850000078002840F0D58000270026280080B29C
:10386000864280F2CE80A05D07003800C0B2C0283A
:1038700016D109206F49C1F80A0000206D49C1F82E
:1038800002005FF0FF306B49C1F806000020694973
:103890000870002067494870012066490870AEE052
:1038A00064480078002800F0AA803800C0B2DB2805
:1038B00003D101205F494870A1E05E4840780028AC
:1038C0000CD15B485B49D1F8021047545948D0F8F5
:1038D0000200401C5749C1F8020026E03800C0B27F
:1038E000DC2802D0DD280ED01BE0C0205049514A10
:1038F000D2F8022088544F48D0F80200401C4D49AD
:10390000C1F802000EE0DB2049494A4AD2F8022001
:1039100088544848D0F80200401C4649C1F80200CB
:1039200000E059E00020434948704248D0F80200C6
:10393000052819D13E4840783D49897850EA012050
:103940003C49C1F80A003B48D0F80A00093039491F
:10395000C1F80A003748D0F80A0065283CD235483B
:10396000D0F80A00092837D33248D0F80A00001FDF
:103970003049D1F8021088420FD32E48D0F80610F3
:103980002B482C4AD2F80220104410F8010C00F009
:1039900075FB2849C1F8060031E02648807900F01F
:1039A000FF002349234AD2F80220114411F8011CD8
:1039B000884211D11F48D0F80600000A1D49C1F8FD
:1039C00006001C48D0F802001A49D1F80A108842B3
:1039D00015D301201549087009201649C1F80A00BD
:1039E00000201449C1F802005FF0FF301149C1F80E
:1039F000060000200F49087000200E494870761C10
:103A00002CE7F1BD64140020000000200C00002011
:103A1000040000200800002001150020FC140020F4
:103A20006C15002034150020391500206E1500207B
:103A300000140020441500207047000049484A49FE
:103A400008604A48484948604748006846498860D5
:103A5000454800684449C860002043490874002074
:103A60004149487470474048007C0028FBD1012040
:103A70003D490874704700203B490874704710B5F1
:103A80000400FFF7F0FF38488068374949688842EA
:103A900006D33548006834498860012032494874AB
:103AA000314880683049C968884214D12E48407C2A
:103AB000002810D02C48C068401C2B494968884217
:103AC00004D3294800682849C86004E02648C06833
:103AD000401C2549C86024488068047022488068DA
:103AE000401C21498860FFF7C6FF10BD10B50024B7
:103AF00072B6FFF7B8FF00F025F800281CD11A486D
:103B0000C06819494968884203D3174800681649B4
:103B1000C8601548C068401C13498968884202D1B2
:103B20000020114948741048C068007804000E480D
:103B3000C068401C0C49C860FFF79DFF62B62000BA
:103B4000C0B210BD084880680749C968884205D1DD
:103B50000548407C002801D1012000E0002070478A
:103B600000000000C814002020150020FA140020D6
:103B700080B53048006850F001002E4908602D489B
:103B8000006810F00100009000982B48006850F089
:103B90008050294908602848006810F08050009043
:103BA00000980320FFF78FFC002200217FF00B001C
:103BB000FFF78FFC002200217FF00A00FFF789FC4D
:103BC000002200217FF00900FFF783FC0022002182
:103BD0007FF00400FFF77DFC002200217FF003004E
:103BE000FFF777FC002200217FF00100FFF771FC56
:103BF000002200215FF0FF30FFF76BFC0F480068E8
:103C000030F0E06050F000700C49086001BD81B0F8
:103C100001680B4A91420BD10A49096851F04001F1
:103C2000084A11600749096811F0400100910099A4
:103C300001B07047181002401C10024004000140FF
:103C4000003002401410024001480068704700BF75
:103C50006815002010B504004FF47A700D490978FA
:103C6000B0FBF1F00C490968B1FBF0F0FFF74DFC37
:103C7000002801D001200CE0102C09D200222100E4
:103C80005FF0FF30FFF725FC04480460002000E0EF
:103C9000012010BD89010020140000201000002028
:103CA000F8B505000E000027287C00280ED14FF43F
:103CB0000073022281212800FDF7E7FC4FF4007316
:103CC000022201212800FDF7E0FC0BE04023022244
:103CD00081212800FDF7D9FC402302220121280080
:103CE000FDF7D3FC0823032282212800FDF7CDFC39
:103CF0004FF40770FDF790FDC5F81802D5F81802CB
:103D0000002802D1012007001FE0D5F818020400A6
:103D1000D5F81C02006880470020C4F81402002077
:103D2000C4F81802287C002808D14FF40073D4F896
:103D3000042201212800FDF74AFD06E04023D4F8C3
:103D4000042201212800FDF742FD3800C0B2F2BD77
:103D500070B504000D00002681212000FDF7B1FCA4
:103D600001212000FDF7ADFC82212000FDF7A9FC18
:103D7000D4F8180200280AD0D4F81C024068804702
:103D8000D4F81802FDF756FD0020C4F818023000E0
:103D9000C0B270BD70B504000D00D4F81862287868
:103DA00010F06000C0B2002828D0202832D1E88866
:103DB00000281BD0287800060CD5EA8831006878E6
:103DC000D4F81C329B689847EA8831002000FEF73F
:103DD0007CFB12E0687886F80002E88886F8010229
:103DE000EA8831002000FEF793FB06E0002229005C
:103DF0006878D4F81C329B6898470BE068780A28EA
:103E000002D00B2806D005E0012230492000FEF741
:103E10005CFBFFE7002070BD0200D2F81832D2F838
:103E20001802002804D00020C3F81402002000E08B
:103E30000220704770B504000D00D4F81862290004
:103E4000C9B22000FDF7DEFCC6F80C02D4F8180257
:103E5000002809D016F50371D6F80402D4F81C2204
:103E6000D2689047002000E0022070BD38B5040001
:103E7000D4F81852D4F81C02002810D095F800028B
:103E8000FF280CD095F8012292B2290095F8000283
:103E9000D4F81C329B689847FF2085F80002002068
:103EA00032BD0100432008800948704701004320CB
:103EB0000880084870470100432008800648704782
:103EC00001000A2008800548704700007215002094
:103ED000A00000205C000020E4000020180000206A
:103EE00002000220002903D0C2F81C12002318008F
:103EF000C0B2704710B40300D3F81842C4F80812D7
:103F0000100080B2C4F81002002010BC70470200FC
:103F1000D2F81832C3F804120020704738B50400F4
:103F2000D4F81852D4F81802002813D0D5F8140287
:103F300000280DD10120C5F81402D5F810329BB22B
:103F4000D5F8082281212000FDF726FC002002E0A0
:103F5000012000E0022032BD38B50400D4F8185228
:103F6000D4F81802002814D0207C002808D14FF47F
:103F70000073D5F8042201212000FDF728FC06E09B
:103F80004023D5F8042201212000FDF720FC002069
:103F900000E0022032BD000080B500222A492B48F3
:103FA000FFF7A8FF2A492948FFF7B1FF002002BD0B
:103FB0000020704703001800C0B2002810D001286C
:103FC0000FD002280ED003280DD004280CD02028B2
:103FD0000BD021280AD0222809D0232808D008E0B5
:103FE00007E006E005E004E003E002E001E000E0B5
:103FF000FFE70020704738B504000D00296889B23A
:104000002000FFF721FC21001048FFF780FF0F4838
:10401000FFF7A2FF002032BDF8B504000D00002616
:104020000A48D0F81872D7F81402002801D00120ED
:1040300009E02A0092B221000448FFF75BFF034821
:10404000FFF76CFFC0B2F2BDD4090020BC0D002008
:10405000EC05002030B403000800411E00280AD0FF
:104060000B4C02F0FF051878454054F8250090EA03
:1040700012225B1CF0E7100030BC7047044A01F0CC
:10408000FF03C0B2584052F8200090EA1120704758
:104090009440000800000000963007772C610EEE77
:1040A000BA51099919C46D078FF46A7035A563E98F
:1040B000A395649E3288DB0EA4B8DC791EE9D5E0B6
:1040C00088D9D2972B4CB609BD7CB17E072DB8E7B5
:1040D000911DBF906410B71DF220B06A4871B9F30A
:1040E000DE41BE847DD4DA1AEBE4DD6D51B5D4F443
:1040F000C785D38356986C13C0A86B647AF962FDA8
:10410000ECC9658A4F5C0114D96C0663633D0FFAF4
:10411000F50D088DC8206E3B5E10694CE44160D5FA
:10412000727167A2D1E4033C47D4044BFD850DD2E4
:104130006BB50AA5FAA8B5356C98B242D6C9BBDBF7
:1041400040F9BCACE36CD832755CDF45CF0DD6DCF2
:10415000593DD1ABAC30D9263A00DE518051D7C899
:104160001661D0BFB5F4B42123C4B3569995BACF24
:104170000FA5BDB89EB802280888055FB2D90CC645
:1041800024E90BB1877C6F2F114C6858AB1D61C1BE
:104190003D2D66B69041DC760671DB01BC20D298DD
:1041A0002A10D5EF8985B1711FB5B606A5E4BF9F6A
:1041B00033D4B8E8A2C9077834F9000F8EA809965D
:1041C00018980EE1BB0D6A7F2D3D6D08976C6491C8
:1041D000015C63E6F4516B6B62616C1CD8306585E1
:1041E0004E0062F2ED95066C7BA5011BC1F40882BE
:1041F00057C40FF5C6D9B06550E9B712EAB8BE8BFF
:104200007C88B9FCDF1DDD62492DDA15F37CD38C87
:10421000654CD4FB5861B24DCE51B53A7400BCA385
:10422000E230BBD441A5DF4AD795D83D6DC4D1A4B7
:10423000FBF4D6D36AE96943FCD96E34468867AD8E
:10424000D0B860DA732D0444E51D03335F4C0AAA2D
:10425000C97C0DDD3C710550AA41022710100BBE30
:1042600086200CC925B56857B3856F2009D466B977
:104270009FE461CE0EF9DE5E98C9D9292298D0B0AC
:10428000B4A8D7C7173DB359810DB42E3B5CBDB759
:10429000AD6CBAC02083B8EDB6B3BF9A0CE2B603DA
:1042A0009AD2B1743947D5EAAF77D29D1526DB048F
:1042B0008316DC73120B63E3843B64943E6A6D0DDA
:1042C000A85A6A7A0BCF0EE49DFF099327AE000A25
:1042D000B19E077D44930FF0D2A3088768F2011EB8
:1042E000FEC206695D5762F7CB67658071366C194F
:1042F000E7066B6E761BD4FEE02BD3895A7ADA1070
:10430000CC4ADD676FDFB9F9F9EFBE8E43BEB71750
:10431000D58EB060E8A3D6D67E93D1A1C4C2D838DA
:1043200052F2DF4FF167BBD16757BCA6DD06B53F40
:104330004B36B248DA2B0DD84C1B0AAFF64A03367F
:10434000607A0441C3EF60DF55DF67A8EF8E6E31FE
:1043500079BE69468CB361CB1A8366BCA0D26F2547
:1043600036E2685295770CCC03470BBBB916022294
:104370002F260555BE3BBAC5280BBDB2925AB42BA9
:10438000046AB35CA7FFD7C231CFD0B58B9ED92CBE
:104390001DAEDE5BB0C2649B26F263EC9CA36A7523
:1043A0000A936D02A906099C3F360EEB85670772DA
:1043B00013570005824ABF95147AB8E2AE2BB17B41
:1043C000381BB60C9B8ED2920DBED5E5B7EFDC7CC8
:1043D00021DFDB0BD4D2D38642E2D4F1F8B3DD681F
:1043E0006E83DA1FCD16BE815B26B9F6E177B06F1A
:1043F0007747B718E65A0888706A0FFFCA3B066607
:104400005C0B0111FF9E658F69AE62F8D3FF6B6193
:1044100045CF6C1678E20AA0EED20DD75483044E35
:10442000C2B30339612667A7F71660D04D476949C3
:10443000DB776E3E4A6AD1AEDC5AD6D9660BDF40D6
:10444000F03BD83753AEBCA9C59EBBDE7FCFB24789
:10445000E9FFB5301CF2BDBD8AC2BACA3093B3536E
:10446000A6A3B4240536D0BA9306D7CD2957DE5477
:10447000BF67D9232E7A66B3B84A61C4021B685D50
:10448000942B6F2A37BE0BB4A18E0CC31BDF055AC9
:104490008DEF022D0200122008803548704702007F
:1044A000042008803348704738B504000D00200010
:1044B000C0B2002805D12A002F493048FDF7D4FFAB
:1044C00004E02A002C492D48FDF7CEFF2A4832BDD2
:1044D00038B504000D002A0027492948FDF7C4FF1C
:1044E000254832BD38B504000D001A20288000F0A0
:1044F0002AF8244832BD38B504000D002000C0B2AF
:10450000002805D12A001C491F48FDF7ADFF04E033
:104510002A0019491C48FDF7A7FF174832BD38B5D6
:1045200004000D002000C0B2002805D12A00124965
:104530001648FDF799FF04E02A000F491348FDF7DC
:1045400093FF0D4832BD70B51148046811480568E5
:10455000114806683419002C09D008220F492000A0
:1045600000F020F804220E49280000F01BF870BD6E
:104570005401002068010020001200208448000837
:104580009C4800086C010020F0480008D048000852
:10459000E8F7FF1FECF7FF1FF0F7FF1F6E01002089
:1045A0007E01002030B4002400231C001500E4B27A
:1045B000EDB2AC421BD20400240F0A2C07D2040037
:1045C000240F30341D00EDB201F8154006E0040060
:1045D000240F37341D00EDB201F81540000100240E
:1045E0001D00EDB201EB45056C705B1CDDE730BCD6
:1045F0007047000000000000000000000000000004
:1046000000096000000012000071310000007A73A0
:104610006177320000637864653433000020766689
:1046200074723500006E62686779360000006D6A4A
:1046300075373800002C6B696F303900002E2F6CF5
:104640003B702D00000027005B3D000058590D5DB8
:10465000005C000000000000000008000031003491
:1046600037000000002E323536381B00002B332D6A
:104670002A390000000000000000000000000000D7
:1046800000097E00000012000051210000005A5372
:10469000415740000043584445242300002056461B
:1046A00054522500004E424847595E0000004D4AD2
:1046B00055262A00003C4B494F292800003E3F4C1C
:1046C0003A505F00000022007B2B000058590D7DFE
:1046D000007C0000000000000000080000310034F1
:1046E00037000000002E323536381B00002B332DEA
:1046F0002A3900001348006850F001001149086091
:1047000011480168114801400F4801600D480168D7
:104710000F4801400B4801600A48006830F48020CF
:10472000084908600848006830F4FE00064908603F
:104730005FF41F00074908605FF0006006490860E9
:104740007047000000100240041002400000FFF813
:10475000FFFFF6FE0810024008ED00E019E050F8F7
:10476000042BD30744BFA9F101039A18091F0023A2
:10477000042942F8043BF9D25FEA817C134604D550
:104780004FF0000CA2F800C09B1CC90744BF0021D9
:10479000197050F8041B0029E1D170477047FEE7FB
:1047A000FEE7FEE7FEE7FEE77047704780B500F0E2
:1047B00015F8FEF7D1FE01BD80B50448FCF741FABB
:1047C00001BD80B50148FCF73CFA01BD8C01002019
:1047D00080B50820FEF7D3F901BD00000348016849
:1047E00003480078411801480160704768150020AF
:1047F0008901002010B5074979441831064C7C44E2
:10480000163404E00A68081D114488470146A14295
:10481000F8D110BD080000002400000041FFFFFF98
:10482000E81300008C0100200000000057CCFFFFBF
:1048300078010000CE0100000000002000F00DF81B
:10484000002801D0FFF7D6FFAFF300800020AFF3C0
:104850000080FDF7A2FA00F002F80120704700F096
:1048600001B800000746384600F002F8FBE70000F8
:1048700080B5AFF30080024A11001820ABBEFBE701
:104880002600020053544D3332205669727475610C
:104890006C20436F6D506F727400000053544D696B
:1048A00063726F656C656374726F6E696373000029
:1048B00002030405060708090A0B0C0D0E0F101061
:1048C00000000000000000000102030406070809C0
:1048D00043444320496E746572666163650000005D
:1048E0000148804701480047F5460008FD48000898
:1048F00043444320436F6E6669670000AFF3008056
:10490000AFF30080FFF79AFFFFF7FEBFFFF7FEBF90
:10491000FFF7FEBFFFF7FEBFFFF7FEBFFFF7FEBFCB
:10492000FFF7FEBFFFF7FEBFFFF7FEBFFFF7FEBFBB
:10493000FFF7FEBFFFF7FEBFFFF7FEBFFFF7FEBFAB
:10494000FFF7FEBFFFF7FEBFFFF7FEBFFFF7FEBF9B
:10495000FFF7FEBFFFF7FEBFFFF7FEBFFFF7FEBF8B
:10496000FFF7FEBFFFF7FEBFFFF7FEBFFFF7FEBF7B
:10497000FFF7FEBFFFF7FEBFFFF7FEBFFFF7FEBF6B
:10498000FFF7FEBFFFF7FEBFFFF7FEBFFFF7FEBF5B
:10499000FFF7FEBFFFF7FEBFFFF7FEBFFFF7FEBF4B
:1049A000FFF7FEBFFFF7FEBF10032D000000150448
:1049B000124304120204131000013003A24A040A35
:1049C000060F134001051007A13C0008513D0008E7
:1049D0009504211F10036D3E0008190443353E1055
:1049E000610112AD1012A30412B70412C104100D1C
:1049F00009024300020100C0320904000001020B59
:104A0000101E0524001001052401000104240202E7
:104A100005240600010705820308001009040100AF
:104A2000020A4E1002070501027B200107058107DB
:104A3000F228004422400722810720010009074490
:104A4000F2130444F207FF441003993F0008B10435
:104A500012B50412F7041003954400089F0412D104
:104A60000412A90412E50412F70410031F450008FC
:104A700012431006020200408304405779170203D4
:0F4A800045F00508040309041A030001030101AE
:04000005080048FDAA
:00000001FF
